:10000000001000204114000069140000ED100000F1
:1000100000000000000000000000000000000000E0
:100020000000000000000000000000006914000053
:1000300000000000000000006914000069140000C6
:1000400069140000691400006914000069140000BC
:1000500069140000691400006914000069140000AC
:10006000691400006914000069140000691400009C
:100070004D090000691400006914000069140000B3
:10008000691400006914000069140000691400007C
:10009000691400006914000069140000691400006C
:1000A000691400006914000069140000691400005C
:1000B000691400006914000069140000691400004C
:1000C00010B5064C2378002B07D1054B002B02D02E
:1000D000044800E000BF0123237010BDAC000020E5
:1000E00000000000602B0000084B10B5002B03D06F
:1000F0000749084800E000BF07480368002B00D10B
:1001000010BD064B002BFBD09847F9E7000000001C
:10011000B0000020602B0000A800002000000000BC
:10012000164B002B00D1144B9D46402292029A1A86
:10013000924600218B460F461348144A121A01F0CA
:1001400089FA0F4B002B00D098470E4B002B00D0A4
:1001500098470020002104000D000D48002802D01F
:100160000C4800E000BF01F051FA2000290000F027
:10017000F9FC01F035FAC04600000800001000202C
:100180000000000000000000AC000020F80C00207F
:10019000000000000000000010B5012220210348EB
:1001A00000F04EFF0022024B1A6010BDC04000401C
:1001B000D4480040174B01221A60C046C046C046D2
:1001C000C046C046C046C046C046C046C046C046FF
:1001D00000221A60C046C046C046C046C046C0465F
:1001E000C046C046C046C046C046C046C046C046DF
:1001F000C046C046C046C046C046C046C046C046CF
:10020000C046C046C046C046C046C046C046C046BE
:100210007047C046D4480040164B01221A60C046C1
:10022000C046C046C046C046C046C046C046C0469E
:10023000C046C046C046C046C046C046C046C0468E
:10024000C046C046C046C046C046C046C046C0467E
:10025000C046C046C046C046C046C046C046C0466E
:10026000C046C046C046C046C046C046C046002242
:100270001A607047D448004070B50500182403E0A8
:10028000FFF798FF013CE4B2002C08D0631E2A005F
:100290001A411300DB07F3D5FFF7BEFFF2E770BD8D
:1002A00030B5224B1B78082B16D0002438E0C51837
:1002B0009621490061431E4A5218555DE1001D4ACE
:1002C0005218D5540133DBB2042BF0D90134E4B217
:1002D000072C03D80023F7E70024F9E700200AE001
:1002E000C100144A52180021D1540133DBB2072B4C
:1002F000F6D90130C0B2072816D80523F7E7C5188C
:100300009621490061430A4A5218555DE100094AA5
:100310005218D5540133DBB2072BF0D90134E4B2C3
:10032000072C01D80023F7E730BDC046B80C0020E9
:10033000CC000020780A002070B5002545E0274B4E
:100340001B78002B12D0012B15D00A20FFF794FF49
:10035000013C64B2002C36DBEA00214B9B181B5D8C
:10036000012BECD00020FFF787FFF1E7A02000036E
:10037000FFF782FFECE7A0200001FFF77DFFE7E732
:100380000724E7E7154B1B78002B12D0012B15D063
:100390000A20FFF771FF013464B2072C13DCEA0076
:1003A0000F4B9B181B5D012BECD00020FFF764FF67
:1003B000F1E7A0200003FFF75FFFECE7A0200001BA
:1003C000FFF75AFFE7E7013675B2072D04DCEEB2FE
:1003D000F307D5D50024E0E770BDC046C800002073
:1003E000780A002010B50024230008330A4A127846
:1003F00093420FDC094B1B78012B0BD02000FFF739
:100400004FFFFFF799FF0649064800F00FFF013440
:1004100024B2E9E710BDC046B80C0020640A0020F1
:10042000F04902000000054000B52038C3B25A2B45
:1004300006D89800974B1B589F460022964B1A707F
:1004400000BD0122944B1A70FAE70222924B1A70F7
:10045000F6E70322904B1A70F2E704228E4B1A70D3
:10046000EEE705228C4B1A70EAE706228A4B1A70D7
:10047000E6E70722884B1A70E2E70822864B1A70DB
:10048000DEE70922844B1A70DAE70A22824B1A70DF
:10049000D6E70B22804B1A70D2E70C227E4B1A70E3
:1004A000CEE70D227C4B1A70CAE70E227A4B1A70E7
:1004B000C6E70F22784B1A70C2E71022764B1A70EB
:1004C000BEE71122744B1A70BAE71222724B1A70EF
:1004D000B6E71322704B1A70B2E714226E4B1A70F3
:1004E000AEE715226C4B1A70AAE716226A4B1A70F7
:1004F000A6E71722684B1A70A2E71822664B1A70FB
:100500009EE71922644B1A709AE71A22624B1A70FE
:1005100096E71B22604B1A7092E71C225E4B1A7002
:100520008EE71D225C4B1A708AE71E225A4B1A7006
:1005300086E71F22584B1A7082E72022564B1A700A
:100540007EE72122544B1A707AE72222524B1A700E
:1005500076E72322504B1A7072E724224E4B1A7012
:100560006EE725224C4B1A706AE726224A4B1A7016
:1005700066E72722484B1A7062E72822464B1A701A
:100580005EE72922444B1A705AE72A22424B1A701E
:1005900056E72B22404B1A7052E72C223E4B1A7022
:1005A0004EE72D223C4B1A704AE72E223A4B1A7026
:1005B00046E72F22384B1A7042E73022364B1A702A
:1005C0003EE73122344B1A703AE73222324B1A702E
:1005D00036E73322304B1A7032E734222E4B1A7032
:1005E0002EE735222C4B1A702AE736222A4B1A7036
:1005F00026E73722284B1A7022E73822264B1A703A
:100600001EE73922244B1A701AE73A22224B1A703D
:1006100016E73B22204B1A7012E73C221E4B1A7041
:100620000EE73D221C4B1A700AE73E221A4B1A7045
:1006300006E73F22184B1A7002E74022164B1A7049
:10064000FEE64122144B1A70FAE64222124B1A704F
:10065000F6E64322104B1A70F2E644220E4B1A7053
:10066000EEE645220C4B1A70EAE646220A4B1A7057
:10067000E6E64722084B1A70E2E64722064B1A705C
:10068000DEE64922044B1A70DAE64C22024B1A705D
:10069000D6E6C046E4250000BA0C002030B50024A0
:1006A00023E0214B19788B005918204B5B18195DFA
:1006B000012393400B4013411D490878451C0D70E0
:1006C0001C490D889621490048431B4909184B5580
:1006D000013A52B2002AE4DA0022154B1A70154A88
:1006E000138801331380013464B2042C01DC072227
:1006F000F0E700230EE00E4A1178481C10700D4AF6
:1007000010889622520051430B4A5218002111546E
:1007100001335BB2072BEEDD0022054B1A70054A50
:1007200013880133138030BDBA0C0020502700001D
:100730002E0A00202C0A0020CC00002070B50500F5
:1007400000240BE02857FFF76FFE280001F00EF899
:1007500001002000FFF7A2FF013464B2280001F07D
:1007600005F88442EED3104B1B88082B14D90F4A8E
:100770001380FFF737FE0E490E4800F057FD0E4A72
:1007800013780133DBB21370032B09D000230B4A1B
:100790001370054A138070BD0822044B1A80E8E7E5
:1007A0000022054B1A70F1E72C0A0020B80C00203B
:1007B00040420F0000000540C80000202E0A002023
:1007C00010B582B004000221684600F079FB0028D1
:1007D00024DB009BDB0702D4019BA34221D0134AF8
:1007E000136810210B431360C020800300F0C2FA8D
:1007F0000123009A9A43009201940221684600F076
:100800008DFB00280FDB00F081FC0028FBD00122CB
:100810008023DB059A60002002B010BD0120404219
:10082000FAE70020F8E701204042F5E700C0004069
:1008300070B505000E00002409E0DA000100D14087
:10084000074A115501330134032BF6D90435B5425B
:1008500004D2280000F0C8FA0023F5E770BDC046B6
:10086000BC0C0020F8B504000E001700002307E0C0
:100870005D1C9B00F958200000F0DAFA04342B00CC
:10088000B442F5D3F8BD000070B58022D2058023B4
:100890005B005921D1504339D1507231D150D358D6
:1008A000002BF2D0042000F0F7F9102000F018FA25
:1008B0000021072000F030FA00240E4B5C630E4D3F
:1008C0000022C0218904280000F0A4F9280000F0CB
:1008D000EBF90A4800F0E8F900F0C8FD8023DB05D9
:1008E0005A6C07491140074A0A435A648022520051
:1008F0009C5070BD00020040103D805F0200805E91
:1009000000FF00FF0800090010B50D4800F034FC9E
:100910000C4CE1214902200000F0FAFC01212000EA
:1009200000F0F2FC80225201074B1A60A368F0220B
:100930009343A3603221200000F058FD10BDC04653
:10094000100000040000074000E100E0134BDB69E9
:10095000DB0518D5124A13780133DBB213700F4B45
:100960001968CAB20D2A0FD0FF230B400B490B6048
:100970000C490B880C48C25401339BB20B80312BBD
:1009800001D900220A8070470022064B1A80074BCB
:100990001A700122064B1A70F5E7C04600000740A6
:1009A000620A0020660A0020300A0020320000207F
:1009B000640A002070B58022D20580235B00592193
:1009C000D1504339D1507231D150D358002BF2D08D
:1009D00000F002FAC025AD012800FFF7F1FE074C38
:1009E000236808263343236005492800FFF720FFCA
:1009F0002368B343236000F0B5F970BD00C0004028
:100A000032300000124B1B785BB201331DD0002343
:100A100004E000210F4AD1540133DBB2312BF8D965
:100A20000023312B08D80A4AD256511C0ED009494E
:100A3000CA540133DBB2F4E7002304E00021044A86
:100A4000D1540133DBB2312BF8D970470023FAE7D8
:100A5000BC0C00200000002070B5002309E0364ADD
:100A6000525C0D2A03D0344A525C002A63D1013310
:100A7000DBB2312B0BD819002F4AD25CD2B21F2A1D
:100A8000EDD92D4AD25CD2B27E2AF0D9E7E7002315
:100A900004E00021294AD1540133DBB2312BF8D9CB
:100AA000002307E000202549C8540020224988542B
:100AB0000133DBB2312B09D81A001F49C95C0D295B
:100AC000F0D01D49C85C1D49C854EEE71B491C48BD
:100AD00000F0C8FD1B4800F03FFE8022D2058023B5
:100AE0005B005921D1504339D1507231D150D35884
:100AF000002BF2D000F070F9134C236808252B432B
:100B00002360C026B601300000F034F90B4A0F49CB
:100B10003000FFF7A7FE2368AB43236000F022F903
:100B200000230B4A13700B4A13700B4A13700B4AC5
:100B300013700B4A137070BD300A002000000020B3
:100B4000D4280000E828000000C000403230000037
:100B5000620A0020630A0020650A00202E0A002095
:100B60002C0A002010B5FFF78FFEFFF7CDFEFFF730
:100B700013FB1149114800F059FBFFF71BFFFFF76A
:100B800041FF0F4C200000F0E7FD0E4800F0E4FDAF
:100B9000200000F0E1FD0C4800F0DEFD04E0FFF76E
:100BA0005BFF0022094B1A70084B1B78002BF6D113
:100BB0000748FFF7C3FDF7E740420F00000005407C
:100BC00020290000602900009C290000640A002000
:100BD0000000002010B500F049FC044B5A6B0723BD
:100BE0001340034A1068D84010BDC04600020040C0
:100BF0003800002010B500F039FC044B5A6B120984
:100C000007231340024A1068D84010BD000200407C
:100C100038000020F0B589B004AB1C4CE0CCE0C338
:100C20001D0023682B60002300930193029310336F
:100C30000393830AFF24234010D0850CFC3C2C40F6
:100C4000A4006D466559124CA44665442C684709BA
:100C50001F263E40B3409C4322432A60430E072296
:100C6000134010D0040F043A2240920004AC1459EF
:100C7000084A944664442268000D1F25284083409A
:100C80009A431143216009B0F0BDC046DC29000041
:100C90002002004010020040024A1368184310600E
:100CA0007047C0460002004070B584B001AA0A4BEC
:100CB0001033110070CB70C1830F9B009B58074A03
:100CC000944663441A681F2108401E3981400A4334
:100CD0001A6004B070BDC046DC2900000402004068
:100CE00000220A4B1A600A4A0A4B1B6D03409842C5
:100CF00004D0013A002AF7D1100000E00120002AB8
:100D000002D1013A014B1A607047C046680A0020C0
:100D100040BF0F0000020040F8B506000F00104C65
:100D2000236D10251D4023680422134323601020E7
:100D3000FFF7D6FF2369072213432361216A0F239C
:100D4000994339432162206990433043206100F088
:100D50008DFB002D03D1236804218B432360F8BD54
:100D600000020040024A136801218B431360704760
:100D700000C0004010B50022144B1A60144B223200
:100D8000DA605860213A1A61124B1868142100F099
:100D900095FB0138002803D00D4B1B69DB07F8D405
:100DA000002805D00A4B1B685B0605D4002010BD47
:100DB0000138064B1860FAE7054A136840210B43D7
:100DC000136001204042014B1860F0E7F00C002056
:100DD00000C0004038000020024A136801210B4384
:100DE0001360704700C0004010B500220D4B1A6020
:100DF0000D4BDA60586001321A610C4B18682821DB
:100E000000F05CFB0138002803D0074B1B69DB07AF
:100E1000F8D4002803D10138024B186010BD024BF2
:100E20009868FBE7F00C002000C00040380000206C
:100E300010B500221F4B1A601F4B2132DA60586038
:100E40009960203A1A611D4B1868282100F036FB82
:100E50000300013B002B03D0174A1269D207F8D4D4
:100E6000002B14D0144B1B6C5B0615D4124A9169ED
:100E700080239B000B4393610138002803D00E4B65
:100E80009B699B05F8D4002810D0002010BD0120DC
:100E90004042084B1860F9E7074A136C40210B43A6
:100EA000136401204042034B1860EFE70138014B07
:100EB0001860EBE7F00C002000C000403800002074
:100EC00070B506000D00C0208003FFF78DFF306075
:100ED0000F4B1C68002C0DD1032D0DD8012D07D907
:100EE0000C48FFF781FF7060094B1B68002B0DD188
:100EF000022D04D8200070BD023C1C60FAE70648B1
:100F0000FFF772FFB060024B1C68F3E71C00F1E7CB
:100F1000F00C00200400300008003000F0B5C64698
:100F200000B582B0070088460022414B1A60414A52
:100F3000136810210B431360C0208003FFF71AFFD2
:100F400000282FD1C0208003FFF74EFF431C2FD174
:100F50003948FFF749FF431C2AD13848FFF744FFBF
:100F6000A63025D1324B1B680193002B2FD10024D2
:100F7000444556D2C0231B03E618B600A5007D19D0
:100F800029683000FFF754FF002829D13000FFF70F
:100F90002BFF2B6898422ED1254B1B68002B35D197
:100FA0000134E5E701277F42214B1F60019709E0EB
:100FB000204A136810218B43136001277F421C4B8A
:100FC0001F600197019802B004BC9046F0BD194A19
:100FD000136810218B43136001235B420193F1E7F7
:100FE000144A136810218B43136001277F42104B72
:100FF0001F600197E6E70F4A136810218B431360C7
:1010000001277F420A4B1F600197DBE7094A1368FB
:1010100010218B43136001277F42054B1F6001970E
:10102000D0E7044A136810218B431360CAE7C04617
:10103000F00C002000C00040040030000800300028
:1010400070B5002300E001330F2B0DD801249C4024
:101050002142F8D004685E000325B540AC4315007A
:10106000B5402C430460EEE770BD000010B50400ED
:101070000168104800F0F6FA61680F4800F0F2FAD3
:10108000A1680E4800F0EEFAE1680D4800F0EAFAB7
:1010900021690C4800F0E6FA61690B4800F0E2FAB9
:1010A000A1690A4800F0DEFAE169094800F0DAFABD
:1010B00010BDC046102A00001C2A0000282A00008B
:1010C000342A0000402A00004C2A0000582A000060
:1010D000642A000010B50400034800F03DFB200026
:1010E000FFF7C4FFFEE7C046F8290000064B0420C6
:1010F0007146084203D0EFF309807146EAE7EFF347
:101100000880E7E7FEE7C046D5100000034B98696A
:1011100080235B051840431E98417047000007403C
:1011200010B5130005E0002008560C4B1860230092
:1011300001315C1E002B0FD0084B9B691B02FBD4B6
:101140000023CB560A2BEED10D20044B1860034B25
:101150009B691B02FBD4E6E7100010BD00000740AE
:10116000044B9B695B04FBD4024B1B680B70012092
:101170007047C04600000740030E074A9446634488
:1011800019680002000A012282401143196019689F
:10119000914319607047C0460800004030B589B0DF
:1011A0001D4C6B46220032CA32C332CA32C312CA45
:1011B00012C31A4B984211D0194B984214D0194BB4
:1011C000984217D0184B5A69120D07231340022B6F
:1011D00016D09B006A46985809B030BD124B5A6928
:1011E000120A07231340F2E70F4B5A69120B072329
:1011F0001340ECE70C4B5A69120C07231340E6E747
:10120000064B984205D0064B984202D0FFF7F2FCFD
:10121000E2E7FFF7DFFCDFE7702A0000000005408F
:10122000200005400010054000020040F8B5040011
:101230000E00FFF7B3FF05000023236063612E4B10
:10124000984222D82D4B9E4201D8FA26B6002A4B4E
:101250009E4222D8284B9D4221D82900284800F0E0
:101260002DF90100FA208000704300F027F90026D4
:1012700060608023DB0533432360224B1F68290015
:10128000380000F01BF9451C16E0632E00D86426D8
:10129000194B9E42DED9184EDCE7174EDAE71649A5
:1012A000280000F00BF97043060EE1D0711C00F02D
:1012B00005F9DDE7C046013D002DFBD12000FFF719
:1012C0006DFF0100380000F0F9F801367043E26864
:1012D000290003E04B1C81420BD8190023689B01B5
:1012E00005D5E3689A42F5D0E2682900F6E70020C8
:1012F000F8BD01204042FBE740420F00E703000039
:1013000000CA9A3B38000020436819434160704787
:10131000F0B587B004000E002E486B46020023CAC9
:1013200023C323CA23C32C4B9C4226D02B4B9C4265
:101330002DD000270025002323630333E360A36837
:10134000274A1340A360042D2BD0002E13D0AD00EC
:101350006B46E858791C00F0B1F8050070082818B1
:10136000310000F0ABF802381E4B984228D8C02359
:101370009B051843606207B0F0BD1B4B5D692D0EE5
:1013800007221540196A090A0F270F40D3E7164BA9
:101390005D692D0F07221540196A090B0F270F40B1
:1013A000C9E70D4B9C4205D0FFF724FCAB006A4611
:1013B0009850CAE7FFF70EFCAB006A469850C4E7A6
:1013C000F0002818310000F079F800090238606256
:1013D000D1E7C046902A00000000074000100740F7
:1013E0000FFFF0FFFFFF000000020040036AFF2232
:1013F000934319430162426880231B0113434360F6
:10140000704710B500F0E6F8582303600120404211
:1014100010BD10B500F0DEF85823036001204042F3
:1014200010BD10B500F0D6F858230360002010BDA1
:1014300010B500F0CFF8582303600120404210BDE2
:101440000649074A074B9B1A03DD043BC858D05096
:10145000FBDC00F031F8FEF763FE00006C2B0000AF
:1014600000000020AC000020FEE7C04610B50C4A8A
:10147000116907230B409B000A495858136A0F2132
:101480001940013100F01AF8074B1860074B9C46D1
:101490006044074900F012F8064B186010BDC046C2
:1014A00000020040A82A00003800002020A1070008
:1014B00040420F0034000020704700000022430823
:1014C0008B4274D303098B425FD3030A8B4244D30C
:1014D000030B8B4228D3030C8B420DD3FF2209024E
:1014E00012BA030C8B4202D31212090265D0030B0D
:1014F0008B4219D300E0090AC30B8B4201D3CB0303
:10150000C01A5241830B8B4201D38B03C01A524144
:10151000430B8B4201D34B03C01A5241030B8B4246
:1015200001D30B03C01A5241C30A8B4201D3CB0231
:10153000C01A5241830A8B4201D38B02C01A524116
:10154000430A8B4201D34B02C01A5241030A8B4219
:1015500001D30B02C01A5241CDD2C3098B4201D331
:10156000CB01C01A524183098B4201D38B01C01AAF
:10157000524143098B4201D34B01C01A5241030926
:101580008B4201D30B01C01A5241C3088B4201D3D5
:10159000CB00C01A524183088B4201D38B00C01A82
:1015A000524143088B4201D34B00C01A5241411AA9
:1015B00000D20146524110467047FFE701B50020B6
:1015C00000F006F802BDC0460029F7D076E7704764
:1015D0007047C046014B18687047C0463C00002069
:1015E000084B10B50400002B02D0002100E000BF22
:1015F000054B1868836A002B00D09847200000F044
:10160000E3FFC04600000000C82A000070B50026B5
:101610000C4D0D4C641BA410A64209D1002600F00D
:10162000D5FF0A4D0A4C641BA410A64205D170BD1B
:10163000B300EB5898470136EEE7B300EB589847F4
:101640000136F2E7A0000020A0000020A00000204A
:10165000A400002003008218934200D17047197043
:101660000133F9E70FB40B4B13B51C68002C05D000
:10167000A369002B02D1200000F044FA05AB049AC4
:10168000A1682000019300F00FFC16BC08BC04B058
:101690001847C0463C00002070B505000E00002829
:1016A00004D08369002B01D100F02CFAAB69AC683F
:1016B000002B02D1280000F025FA244B9C420FD1C8
:1016C0006C68A3891B0702D52369002B20D1210058
:1016D000280000F0A9F800281AD00120404270BD6F
:1016E0001B4B9C4201D1AC68EBE71A4B9C42E8D102
:1016F000EC68E6E7013B0136A360002B04DAA2693F
:10170000934216DB0A2914D023685A1C22601970F0
:101710003178A3680029EDD1013BA360002B0FDADB
:1017200022000A31280000F029F8431CD5D00A20F5
:10173000D5E72200280000F021F8431CE8D1CCE7CF
:101740000A2023685A1C22601870C8E7EC2A00009F
:101750000C2B0000CC2A000010B5034B01001868C8
:10176000FFF79AFF10BDC0463C0000200023C25C7A
:101770000133002AFBD1581E70470000F8B5050060
:101780000E001400002804D08369002B01D100F062
:10179000B9F9224B9C422DD16C68A369A360A3893F
:1017A0001B0731D52369002B2ED023682269F7B29D
:1017B000981A6369F6B2984205DB2100280000F010
:1017C00033F9002826D1A3680130013BA3602368C8
:1017D0005A1C22601F706369984204D0A389DB07FA
:1017E0001AD50A2E18D12100280000F01DF9002872
:1017F00012D00FE00A4B9C4201D1AC68CDE7094BF7
:101800009C42CAD1EC68C8E72100280000F00CF81F
:101810000028CAD0012676423000F8BDEC2A00002C
:101820000C2B0000CC2A0000364B70B51D6806005A
:101830000C00002D05D0AB69002B02D1280000F070
:1018400061F9314B9C420FD16C680C23E25E93B27C
:1018500019072DD4D90611D4092301203360373359
:101860001343A381404270BD284B9C4201D1AC6818
:10187000EBE7274B9C42E8D1EC68E6E75B0713D522
:10188000616B002908D023004433994202D0300014
:1018900000F03AFA002363632422A3899343A381CF
:1018A00000236360236923600823A2891343A38173
:1018B0002369002B0BD1A0218022A38989009200EB
:1018C0000B40934203D02100300000F0D9F90123EE
:1018D000A289134011D00023A36063695B42A36116
:1018E000002023698342BED10C23E25E1306BAD5E1
:1018F00040231343A3810138B5E7920700D46369FD
:10190000A360EDE73C000020EC2A00000C2B000057
:10191000CC2A0000F7B58A8905000C00130760D4B3
:101920004B68002B04DC0B6C002B01DC0020FEBD9F
:10193000E76A002FFAD000232E682B6080235B011A
:101940001A4034D0606DA3895B0706D56368C01A5E
:10195000636B002B01D0236CC01A0200216A0023A4
:101960002800E76AB847A189431C06D12B681D2BC4
:1019700031D82C4ADA40D3072DD500236360236980
:101980002360CB0405D5431C02D12B68002B00D16A
:101990006065616B2E600029C8D0230044339942F2
:1019A00002D0280000F0B0F900206063BFE70123F7
:1019B000216A2800B847431CC5D12B68002BC2D030
:1019C0001D2B01D0162B01D12E60AFE74023A28939
:1019D0001343A381ABE740230B430120A381404283
:1019E000A5E70F69002FA1D00B680F60DB1B0193E7
:1019F0000023920700D14B69A360019B002B00DC00
:101A000094E7019B3A00216A2800A66AB0470028A3
:101A100003DC4023A2891343DFE7019B3F181B1A15
:101A20000193EAE7010040200B6970B505000C0046
:101A3000002B01D1002070BD002804D08369002B49
:101A400001D100F05FF80B4B9C4209D16C680C226D
:101A5000A35E002BEED021002800FFF75BFFEAE732
:101A6000054B9C4201D1AC68F1E7044B9C42EED19E
:101A7000EC68ECE7EC2A00000C2B0000CC2A0000FC
:101A800010B5024900F0B2F810BDC046291A000096
:101A9000002310B5040003604360836081814366C6
:101AA000C281036143618361190008225C30FFF742
:101AB000D1FD054B24626362044BA362044BE362D5
:101AC000044B236310BDC046152400003D240000D4
:101AD00075240000A124000070B568254A1E5543F6
:101AE0000E002900743100F059F9041E08D00021BD
:101AF0002A00016046600C30A0606832FFF7AAFD42
:101B0000200070BD836913B50400002B28D18364C5
:101B1000C3640365134B144A1B68826201939842A5
:101B200001D101238361200000F020F860602000D3
:101B300000F01CF8A060200000F018F80022E0601F
:101B400004216068FFF7A4FF01220921A068FFF7C4
:101B50009FFF02221221E068FFF79AFF0123A36191
:101B600013BDC046C82A0000811A0000F8B51E4BFC
:101B700007001E68B369002B02D13000FFF7C2FFD7
:101B80004836B4687368013B04D53368002B07D02E
:101B90003668F6E70C22A55E002D0DD06834F2E71A
:101BA00004213800FFF798FF30600028F0D10C23A3
:101BB00004003B602000F8BD012320005B42E3816C
:101BC0000233A38165662560A56065602561656156
:101BD000A561082229005C30FFF73CFD6563A56321
:101BE000A564E564E6E7C046C82A0000F7B504002E
:101BF0000700002601914834002C01D13000FEBDC1
:101C00006368A5680093009B013B009301D524689D
:101C1000F2E7AB89012B08D90E22AB5E013304D069
:101C200029003800019B984706436835EBE7000020
:101C300070B50E001D000E23C95E90B0140000297F
:101C400007DA00232B60B3891B0611D48023DB0045
:101C50000FE001AA00F050FC0028F2DBF022029B0A
:101C600012021340054A9B185A4253412B60EDE77C
:101C700040230020236010B070BDC04600E0FFFF8D
:101C8000F7B502268B8905000C00334206D02300ED
:101C900047332360236101236361F7BD01AB6A46CB
:101CA000FFF7C6FF00990700280000F077F800282A
:101CB00008D10C22A35E9A05EFD4032293431E435E
:101CC000A681E4E70F4BAB628023A2892060134317
:101CD000A381009B20616361019B002B0DD00E232B
:101CE000E15E280000F01AFC002806D00322A38938
:101CF00093431A0001231343A381A0893843A08191
:101D0000CBE7C046811A000070B50500002910D04D
:101D10000C1F2368002B00DAE418280000F02FFCC9
:101D20001D4A1368002B05D163601460280000F081
:101D300027FC70BDA34209D9216860188342F3D102
:101D400018685B6841182160EEE713005A68002AA2
:101D500001D0A242F9D919685818A0420BD12068C5
:101D60000918581819608242E0D110685268411869
:101D700019605A60DAE7A04202D90C232B60D5E73C
:101D800021686018824203D11068526841182160AE
:101D900062605C60CAE7C0466C0A0020032370B52D
:101DA000CD1C9D43083506000C2D1ED20C25A942E2
:101DB0001DD8300000F0E3FB254A146821000029FB
:101DC00019D1244C2368002B03D1300000F010FB04
:101DD00020602900300000F00BFB431C2CD10C23A9
:101DE0003000336000F0CCFB03E0002DDFDA0C2381
:101DF0003360002070BD0B685B1B1AD40B2B03D91A
:101E00000B60CC18256003E08C420ED16368136030
:101E1000300000F0B5FB200007220B30231D90435B
:101E2000C31AE7D05A42E250E4E74B6863600C0003
:101E3000EEE70C004968C2E70323C41C9C43A042A0
:101E4000E0D0211A300000F0D3FA431CDAD1C6E703
:101E50006C0A0020700A0020936810B5013B936063
:101E6000002B05DA9469A34208DBCBB20A2B05D01C
:101E70001368581C10601970C8B210BDFFF77EFCC3
:101E8000FBE7F8B506000F001400D518AC4201D1ED
:101E9000002007E021783A003000FFF7DDFF013431
:101EA000431CF3D1F8BD0000F0B59FB006000F0051
:101EB00014000593002804D08369002B01D1FFF79B
:101EC00021FE7F4B9F425CD17768BB891B0762D59F
:101ED0003B69002B5FD0002306AD6B6120336B762E
:101EE0001033AB760294029C2378002B5DD1029BC9
:101EF000E31A04930DD0049B029A39003000FFF7D7
:101F0000C0FF431C00D1CCE06A69049B9446634443
:101F10006B612378002B00D1C3E0012200235242E1
:101F20006A6002A95432521801342B60EB60AB6036
:101F30001370AB6521780522624800F015FB631C25
:101F40009C46002835D12968CB0604D5532302AA24
:101F500020309B1818700B0704D553232B2002AA9E
:101F60009B18187023782A2B2CD000200A21099B5B
:101F70002278303A092A00D86BE000282AD0099349
:101F800028E0514B9F4201D1B7689EE74F4B9F42DB
:101F90009BD1F76899E739003000FFF745FC00282E
:101FA00099D0012040421FB0F0BD252B9FD00134B5
:101FB0009AE7444B2968C01A012383400B432B60E6
:101FC0006446B7E7059B181D1B680590002B3ADB9C
:101FD0000993644623782E2B0BD16378621C2A2B3D
:101FE0003FD1059B02341A1D1B680592002B35DB7F
:101FF000079321780322364800F0B6FA002807D06C
:10200000334B2A68C01A4023834013432B600134AA
:102010002178631C06222F480293297600F0A4FA47
:10202000002844D02C4B002B2FD12968059B072278
:10203000C90528D59B189343083305936B69039A08
:102040009B186B614FE75B42EB6002230B432B60F5
:10205000BFE74B4301349B18012089E701235B4212
:10206000C6E7002314000A201A006B60217830397B
:10207000092903D9002BBCD00792BAE742430134A7
:1020800052180123F2E70733D5E705AB00933A0076
:10209000124B2900300000E000BF0390039B013386
:1020A000CCD1BB895B0600D57BE70B987BE705AB02
:1020B00000933A00094B2900300000F07FF8ECE76C
:1020C000EC2A00002C2B00000C2B0000CC2A000076
:1020D000322B0000362B000000000000831E0000A1
:1020E000F7B5150001938A680B6900900C009342C4
:1020F00000DA130022002B6043321278002A01D04C
:1021000001332B6023689B0602D52B6802332B60BA
:10211000062723681F4027D0230043331B785A1E0D
:1021200093412268920630D42200019943320098EC
:10213000089EB047431C25D0062320682A68E16822
:1021400003400025042B03D18D1AEB43DB171D4000
:10215000A3682269934201DD9B1AED180027BD4256
:1021600020D1002010E00137E3682A689B1A9F42C3
:10217000D2DA22000123193201990098089EB04753
:10218000431CF0D101204042FEBD3020E118433114
:10219000087021005A1C45310978A21843320233D5
:1021A0001170C1E7220001231A3201990098089E9C
:1021B000B047431CE6D00137D1E70000F0B58BB043
:1021C00006920A0043320793059004920A7E0C009F
:1021D000109B6E2A00D18FE017D8632A2CD008D824
:1021E000002A00D199E0582A54D026004236327095
:1021F00029E0642A01D0692AF7D121681A68080603
:1022000023D5111D1960156825E0732A00D188E0D7
:1022100008D86F2A29D0702AE7D1202209680A43FA
:10222000226003E0752A20D0782ADED122007821AE
:10223000453211706C4A30E00E001A684236111DAA
:10224000196013683370012379E04906D9D5111D4F
:1022500019600023D55E002D03DA2D23049A6D4208
:102260001370624B0A2703932FE020681968050654
:1022700003D5081D18600D6805E04006F9D50D6806
:10228000081D1860ADB2594B082703936F2A18D068
:102290000A2716E045310A70544A03921A682168E9
:1022A000101D18601568080622D5CB0702D520231B
:1022B000194321601027002D03D1202322689A435F
:1022C00022602300002243331A706368A360002B4E
:1022D0005CDB0422216891432160002D58D1049ECB
:1022E000002B64D02600039B42361B7833705EE0DF
:1022F0004806DAD5ADB2D8E709681A68080605D5E8
:10230000111D1960136862691A6006E04906F7D565
:10231000111D19601368A28A1A800023049E23618C
:1023200054E01A68111D19601668002162683000B7
:1023300000F01AF9002801D0801B606063682361F7
:102340000023049A137041E023693200069905982E
:10235000079DA847431C43D0236800259B070FD443
:10236000099BE06898423DDA18003BE02200012317
:10237000193206990598079EB047431C30D00135A5
:10238000E368099A9B1A9D42F0DBE9E7002DA9D08A
:10239000049E28003900FFF717F9039B013E5B5CA0
:1023A000280033703900FFF789F8051EF1D1082F96
:1023B00009D12368DB0706D563682269934202DCF2
:1023C0003023013E3370049B9B1B2361079B09AAAA
:1023D00000932100069B0598FFF782FE431CB3D1B2
:1023E000012040420BB0F0BD4E2B00003D2B000001
:1023F000002370B5064C05000800236000F0D6F8F5
:10240000431C03D12368002B00D02B6070BDC04655
:10241000F40C002070B50C000E25495F00F0B2F8F6
:10242000002803DB636D1B18636570BDA389024A36
:102430001340A381F9E7C046FFEFFFFFF8B51F0087
:102440008B8905000C001600DB0505D50E23C95E3F
:102450000022022300F074F8A389054A28001340E3
:10246000A38132000E23E15E3B0000F01FF8F8BDAF
:10247000FFEFFFFF70B50C000E25495F00F060F81C
:10248000A389421C03D1054A1340A38170BD802259
:1024900052011343A3816065F8E7C046FFEFFFFFD9
:1024A00010B50E23C95E00F015F810BD70B505001B
:1024B000080011000022064C22601A00FEF730FED0
:1024C000431C03D12368002B00D02B6070BDC04695
:1024D000F40C0020002370B5064C050008002360B2
:1024E000FEF78FFF431C03D12368002B00D02B6025
:1024F00070BDC046F40C0020002370B5064C0500EA
:10250000080011002360FEF784FF431C03D12368F9
:10251000002B00D02B6070BDF40C0020002370B5A0
:10252000064C050008002360FEF77BFF431C03D127
:102530002368002B00D02B6070BDC046F40C002037
:1025400070B50500080011000022064C22601A0038
:10255000FEF76EFF431C03D12368002B00D02B60D5
:1025600070BDC046F40C0020C9B28218904201D15F
:102570000020704703788B42FBD00130F6E77047AC
:102580007047000070B50500080011000022064CDD
:1025900022601A00FEF7E4FD431C03D12368002BE0
:1025A00000D02B6070BDC046F40C0020044A1368B4
:1025B000002B03D01818106018007047014BF9E782
:1025C000740A0020F80C0020FEE7C046F8B5C046AB
:1025D000F8BC08BC9E467047F8B5C046F8BC08BCBD
:1025E0009E467047820600002A0600004004000054
:1025F000420600007A060000400400004A0600007F
:1026000040040000520600005A060000400400008A
:10261000620600008A0600006A0600008A060000C2
:102620004004000032060000DA050000E205000068
:10263000EA050000F2050000FA05000002060000AD
:102640000A060000120600001A06000040040000FE
:102650004004000040040000720600004004000036
:10266000220600003A0600003A040000420400007E
:102670004A040000520400005A04000062040000F2
:102680006A040000720400007A0400008204000062
:102690008A040000920400009A040000A2040000D2
:1026A000AA040000B2040000BA040000C204000042
:1026B000CA040000D2040000DA040000E2040000B2
:1026C000EA040000F2040000FA0400000205000021
:1026D00040040000400400004004000040040000EA
:1026E0008A060000400400000A05000012050000F0
:1026F0001A050000220500002A050000320500002E
:102700003A050000420500004A050000520500009D
:102710005A050000620500006A050000720500000D
:102720007A050000820500008A050000920500007D
:102730009A050000A2050000AA050000B2050000ED
:10274000BA050000C2050000CA050000D20500005D
:102750007F8888887FFF9191916E7E81818142FF81
:102760008181423CFF91919181FF909090807E8188
:1027700089894EFF101010FF8181FF8181060101C0
:1027800001FEFF18244281FF01010101FF4030409A
:10279000FFFF403008FF7E8181817EFF888888703E
:1027A0007E8185827DFF888C8A71619191918E8076
:1027B00080FF8080FE010101FEF00C030CF0FF029F
:1027C0000C02FFC3241824C3E0100F10E083859986
:1027D000A1C1062929291FFF0911110E1E2121213E
:1027E000120E111109FF0E1515150C087F88804077
:1027F000304949497EFF0810100F00005F000002B9
:102800000121BE00FF040A11000081FF01003F20EA
:1028100018201F3F1020201F0E1111110E3F2424DD
:102820002418102828183F1F08101008091515151E
:102830000220FE2101021E0101021F1C0201021CD6
:102840001E010E011E110A040A11003905053E1170
:10285000131519110041FF010043858991614281DF
:1028600091916E182848FF08F29191918E1E294986
:102870008986808F90A0C06E9191916E7089898AAF
:102880007C60808D90600000FD00007E8991A17EBB
:1028900066898F817E24FF24FF2476899562050056
:1028A0003C4281000081423C0008083E08080808BC
:1028B0000808081414141414122A7F2A2400000093
:1028C00000000101010101000001000000000300FF
:1028D000000000000A596F7572206E616D652069F5
:1028E000732025730A0000004E6F7720796F7520E2
:1028F00063616E20426C696E67426C696E67207915
:102900006F7572206E616D6520616E7974696D6599
:1029100020616E6420616E797768657265210000C0
:102920002B2D2D2D2D2D2D2D2D2D2D2D2D2D2D2DD9
:102930002D2D2D2D2D2D2D2D2D2D2D2D2D2D2D2DC7
:102940002D2D2D2D2D2D2D2D2D2D2D2D2D2D2D2DB7
:102950002D2D2D2D2D2D2D2D2D2D2D2D2B00000030
:102960007C2020537461727420746F20426C696EF5
:1029700067426C696E6720596F7572204E616D6594
:102980002120202020202020202020202020202046
:1029900020202020202020207C000000506C656139
:1029A0007365207479706520796F7572206E616D22
:1029B0006520616E6420656E74657220746F20738B
:1029C000656E64206F6E20426C696E67426C696E42
:1029D0006720626F6172642E00000000000000003A
:1029E00004000000080000000C00000000000000CF
:1029F0000400000008000000496E20486172642055
:102A00004661756C742048616E646C6572000000EC
:102A1000723020203D20307825780A007231202045
:102A20003D20307825780A00723220203D20307811
:102A300025780A00723320203D20307825780A005E
:102A4000723132203D20307825780A006C722020C7
:102A50003D20307825780A00706320203D203078B2
:102A600025780A00707372203D20307825780A009E
:102A7000001BB70000800000000000000000000004
:102A8000000000000096000000000000006CDC0266
:102A9000001BB7000000000000800000006CDC029A
:102AA0000000000000960000001BB700008000003E
:102AB0000000000000960000000000000000000080
:102AC00000000000006CDC0240000020000000005C
:102AD00000000000000000000000000000000000F6
:102AE00000000000000000000000000000000000E6
:102AF00000000000000000000000000000000000D6
:102B000000000000000000000000000000000000C5
:102B100000000000000000000000000000000000B5
:102B2000000000000000000000000000232D302BFA
:102B30002000686C4C0065666745464700303132BE
:102B40003334353637383941424344454600303115
:102B50003233343536373839616263646566000074
:042B60000000000071
:082B6400BCD5FF7F0100000059
:102B6C005155414E5454524F4E49580000000000EC
:102B7C000000000000000000000000000000000049
:102B8C000000000000000000000000000000000039
:102B9C000000010030000000006CDC02400000204E
:102BAC0000000000EC2A00000C2B0000CC2A0000D6
:102BBC000000000000000000000000000000000009
:102BCC0000000000000000000000000000000000F9
:102BDC0000000000000000000000000000000000E9
:102BEC0000000000000000000000000000000000D9
:102BFC0000000000000000000000000000000000C9
:0C2C0C00E9000000C10000000000000012
:0400000300001441A4
:00000001FF
